{
  "_format": "hh-sol-artifact-1",
  "contractName": "FirstDemoDAO",
  "sourceName": "contracts/FirstDemoDAO.sol",
  "abi": [
    {
      "inputs": [
        {
          "internalType": "address",
          "name": "_token",
          "type": "address"
        }
      ],
      "stateMutability": "nonpayable",
      "type": "constructor"
    },
    {
      "anonymous": false,
      "inputs": [
        {
          "indexed": false,
          "internalType": "uint256",
          "name": "taskId",
          "type": "uint256"
        }
      ],
      "name": "TaskCompleted",
      "type": "event"
    },
    {
      "anonymous": false,
      "inputs": [
        {
          "indexed": false,
          "internalType": "uint256",
          "name": "taskId",
          "type": "uint256"
        },
        {
          "indexed": false,
          "internalType": "address",
          "name": "assignedTo",
          "type": "address"
        },
        {
          "indexed": false,
          "internalType": "uint256",
          "name": "reward",
          "type": "uint256"
        }
      ],
      "name": "TaskCreated",
      "type": "event"
    },
    {
      "anonymous": false,
      "inputs": [
        {
          "indexed": false,
          "internalType": "uint256",
          "name": "taskId",
          "type": "uint256"
        },
        {
          "indexed": false,
          "internalType": "address",
          "name": "to",
          "type": "address"
        },
        {
          "indexed": false,
          "internalType": "uint256",
          "name": "amount",
          "type": "uint256"
        }
      ],
      "name": "TaskRewarded",
      "type": "event"
    },
    {
      "inputs": [
        {
          "internalType": "string",
          "name": "_description",
          "type": "string"
        },
        {
          "internalType": "address",
          "name": "_assignedTo",
          "type": "address"
        },
        {
          "internalType": "uint256",
          "name": "_reward",
          "type": "uint256"
        }
      ],
      "name": "createTask",
      "outputs": [],
      "stateMutability": "nonpayable",
      "type": "function"
    },
    {
      "inputs": [
        {
          "internalType": "uint256",
          "name": "taskId",
          "type": "uint256"
        }
      ],
      "name": "markTaskAsCompleted",
      "outputs": [],
      "stateMutability": "nonpayable",
      "type": "function"
    },
    {
      "inputs": [],
      "name": "owner",
      "outputs": [
        {
          "internalType": "address",
          "name": "",
          "type": "address"
        }
      ],
      "stateMutability": "view",
      "type": "function"
    },
    {
      "inputs": [
        {
          "internalType": "uint256",
          "name": "taskId",
          "type": "uint256"
        }
      ],
      "name": "rewardTask",
      "outputs": [],
      "stateMutability": "nonpayable",
      "type": "function"
    },
    {
      "inputs": [],
      "name": "taskCount",
      "outputs": [
        {
          "internalType": "uint256",
          "name": "",
          "type": "uint256"
        }
      ],
      "stateMutability": "view",
      "type": "function"
    },
    {
      "inputs": [
        {
          "internalType": "uint256",
          "name": "",
          "type": "uint256"
        }
      ],
      "name": "tasks",
      "outputs": [
        {
          "internalType": "string",
          "name": "description",
          "type": "string"
        },
        {
          "internalType": "address",
          "name": "assignedTo",
          "type": "address"
        },
        {
          "internalType": "uint256",
          "name": "reward",
          "type": "uint256"
        },
        {
          "internalType": "bool",
          "name": "isCompleted",
          "type": "bool"
        },
        {
          "internalType": "bool",
          "name": "isPaid",
          "type": "bool"
        }
      ],
      "stateMutability": "view",
      "type": "function"
    },
    {
      "inputs": [],
      "name": "token",
      "outputs": [
        {
          "internalType": "contract FirstDemoToken",
          "name": "",
          "type": "address"
        }
      ],
      "stateMutability": "view",
      "type": "function"
    }
  ],
  "bytecode": "0x608060405234801561001057600080fd5b5060405161138a38038061138a8339818101604052810190610032919061011c565b806000806101000a81548173ffffffffffffffffffffffffffffffffffffffff021916908373ffffffffffffffffffffffffffffffffffffffff16021790555033600160006101000a81548173ffffffffffffffffffffffffffffffffffffffff021916908373ffffffffffffffffffffffffffffffffffffffff16021790555050610149565b600080fd5b600073ffffffffffffffffffffffffffffffffffffffff82169050919050565b60006100e9826100be565b9050919050565b6100f9816100de565b811461010457600080fd5b50565b600081519050610116816100f0565b92915050565b600060208284031215610132576101316100b9565b5b600061014084828501610107565b91505092915050565b611232806101586000396000f3fe608060405234801561001057600080fd5b506004361061007d5760003560e01c8063b6cb58a51161005b578063b6cb58a5146100f0578063ccd501191461010e578063d42a80f51461012a578063fc0c546a146101465761007d565b80638d977672146100825780638da5cb5b146100b6578063b10bcefa146100d4575b600080fd5b61009c600480360381019061009791906108cf565b610164565b6040516100ad9594939291906109f7565b60405180910390f35b6100be61025c565b6040516100cb9190610a51565b60405180910390f35b6100ee60048036038101906100e991906108cf565b610282565b005b6100f86103d5565b6040516101059190610a6c565b60405180910390f35b61012860048036038101906101239190610b18565b6103db565b005b610144600480360381019061013f91906108cf565b61060c565b005b61014e61086b565b60405161015b9190610beb565b60405180910390f35b600360205280600052604060002060009150905080600001805461018790610c35565b80601f01602080910402602001604051908101604052809291908181526020018280546101b390610c35565b80156102005780601f106101d557610100808354040283529160200191610200565b820191906000526020600020905b8154815290600101906020018083116101e357829003601f168201915b5050505050908060010160009054906101000a900473ffffffffffffffffffffffffffffffffffffffff16908060020154908060030160009054906101000a900460ff16908060030160019054906101000a900460ff16905085565b600160009054906101000a900473ffffffffffffffffffffffffffffffffffffffff1681565b60006003600083815260200190815260200160002090508060010160009054906101000a900473ffffffffffffffffffffffffffffffffffffffff1673ffffffffffffffffffffffffffffffffffffffff163373ffffffffffffffffffffffffffffffffffffffff161461032b576040517f08c379a000000000000000000000000000000000000000000000000000000000815260040161032290610cb2565b60405180910390fd5b8060030160009054906101000a900460ff161561037d576040517f08c379a000000000000000000000000000000000000000000000000000000000815260040161037490610d1e565b60405180910390fd5b60018160030160006101000a81548160ff0219169083151502179055507fc1fa7142cfb933d0855114a3bffde296944c30b727f297c14d0db4d553d3a5c7826040516103c99190610a6c565b60405180910390a15050565b60025481565b600160009054906101000a900473ffffffffffffffffffffffffffffffffffffffff1673ffffffffffffffffffffffffffffffffffffffff163373ffffffffffffffffffffffffffffffffffffffff161461046b576040517f08c379a000000000000000000000000000000000000000000000000000000000815260040161046290610d8a565b60405180910390fd5b6040518060a0016040528085858080601f016020809104026020016040519081016040528093929190818152602001838380828437600081840152601f19601f8201169050808301925050505050505081526020018373ffffffffffffffffffffffffffffffffffffffff16815260200182815260200160001515815260200160001515815250600360006002548152602001908152602001600020600082015181600001908161051c9190610f7b565b5060208201518160010160006101000a81548173ffffffffffffffffffffffffffffffffffffffff021916908373ffffffffffffffffffffffffffffffffffffffff1602179055506040820151816002015560608201518160030160006101000a81548160ff02191690831515021790555060808201518160030160016101000a81548160ff021916908315150217905550905050600260008154809291906105c49061107c565b91905055507f6cf53aa7292e664152c2ea948c3b3c95d4b05c36daeb2626d0293473c4a4a15360025483836040516105fe939291906110c4565b60405180910390a150505050565b600160009054906101000a900473ffffffffffffffffffffffffffffffffffffffff1673ffffffffffffffffffffffffffffffffffffffff163373ffffffffffffffffffffffffffffffffffffffff161461069c576040517f08c379a000000000000000000000000000000000000000000000000000000000815260040161069390610d8a565b60405180910390fd5b60006003600083815260200190815260200160002090508060030160009054906101000a900460ff16610704576040517f08c379a00000000000000000000000000000000000000000000000000000000081526004016106fb90611147565b60405180910390fd5b8060030160019054906101000a900460ff1615610756576040517f08c379a000000000000000000000000000000000000000000000000000000000815260040161074d906111b3565b60405180910390fd5b60018160030160016101000a81548160ff02191690831515021790555060008054906101000a900473ffffffffffffffffffffffffffffffffffffffff1673ffffffffffffffffffffffffffffffffffffffff166340c10f198260010160009054906101000a900473ffffffffffffffffffffffffffffffffffffffff1683600201546040518363ffffffff1660e01b81526004016107f69291906111d3565b600060405180830381600087803b15801561081057600080fd5b505af1158015610824573d6000803e3d6000fd5b505050507f94c3a14cb6cd221eafa3796faad63a0cd14bb9a4e2607ca79d8d0aea5fdf05118233836002015460405161085f939291906110c4565b60405180910390a15050565b60008054906101000a900473ffffffffffffffffffffffffffffffffffffffff1681565b600080fd5b600080fd5b6000819050919050565b6108ac81610899565b81146108b757600080fd5b50565b6000813590506108c9816108a3565b92915050565b6000602082840312156108e5576108e461088f565b5b60006108f3848285016108ba565b91505092915050565b600081519050919050565b600082825260208201905092915050565b60005b8381101561093657808201518184015260208101905061091b565b60008484015250505050565b6000601f19601f8301169050919050565b600061095e826108fc565b6109688185610907565b9350610978818560208601610918565b61098181610942565b840191505092915050565b600073ffffffffffffffffffffffffffffffffffffffff82169050919050565b60006109b78261098c565b9050919050565b6109c7816109ac565b82525050565b6109d681610899565b82525050565b60008115159050919050565b6109f1816109dc565b82525050565b600060a0820190508181036000830152610a118188610953565b9050610a2060208301876109be565b610a2d60408301866109cd565b610a3a60608301856109e8565b610a4760808301846109e8565b9695505050505050565b6000602082019050610a6660008301846109be565b92915050565b6000602082019050610a8160008301846109cd565b92915050565b600080fd5b600080fd5b600080fd5b60008083601f840112610aac57610aab610a87565b5b8235905067ffffffffffffffff811115610ac957610ac8610a8c565b5b602083019150836001820283011115610ae557610ae4610a91565b5b9250929050565b610af5816109ac565b8114610b0057600080fd5b50565b600081359050610b1281610aec565b92915050565b60008060008060608587031215610b3257610b3161088f565b5b600085013567ffffffffffffffff811115610b5057610b4f610894565b5b610b5c87828801610a96565b94509450506020610b6f87828801610b03565b9250506040610b80878288016108ba565b91505092959194509250565b6000819050919050565b6000610bb1610bac610ba78461098c565b610b8c565b61098c565b9050919050565b6000610bc382610b96565b9050919050565b6000610bd582610bb8565b9050919050565b610be581610bca565b82525050565b6000602082019050610c006000830184610bdc565b92915050565b7f4e487b7100000000000000000000000000000000000000000000000000000000600052602260045260246000fd5b60006002820490506001821680610c4d57607f821691505b602082108103610c6057610c5f610c06565b5b50919050565b7f4e6f742061737369676e656420746f0000000000000000000000000000000000600082015250565b6000610c9c600f83610907565b9150610ca782610c66565b602082019050919050565b60006020820190508181036000830152610ccb81610c8f565b9050919050565b7f5461736b20636f6d706c6574656420616c726561647900000000000000000000600082015250565b6000610d08601683610907565b9150610d1382610cd2565b602082019050919050565b60006020820190508181036000830152610d3781610cfb565b9050919050565b7f4e6f74206f776e65720000000000000000000000000000000000000000000000600082015250565b6000610d74600983610907565b9150610d7f82610d3e565b602082019050919050565b60006020820190508181036000830152610da381610d67565b9050919050565b7f4e487b7100000000000000000000000000000000000000000000000000000000600052604160045260246000fd5b60008190508160005260206000209050919050565b60006020601f8301049050919050565b600082821b905092915050565b600060088302610e3b7fffffffffffffffffffffffffffffffffffffffffffffffffffffffffffffffff82610dfe565b610e458683610dfe565b95508019841693508086168417925050509392505050565b6000610e78610e73610e6e84610899565b610b8c565b610899565b9050919050565b6000819050919050565b610e9283610e5d565b610ea6610e9e82610e7f565b848454610e0b565b825550505050565b600090565b610ebb610eae565b610ec6818484610e89565b505050565b5b81811015610eea57610edf600082610eb3565b600181019050610ecc565b5050565b601f821115610f2f57610f0081610dd9565b610f0984610dee565b81016020851015610f18578190505b610f2c610f2485610dee565b830182610ecb565b50505b505050565b600082821c905092915050565b6000610f5260001984600802610f34565b1980831691505092915050565b6000610f6b8383610f41565b9150826002028217905092915050565b610f84826108fc565b67ffffffffffffffff811115610f9d57610f9c610daa565b5b610fa78254610c35565b610fb2828285610eee565b600060209050601f831160018114610fe55760008415610fd3578287015190505b610fdd8582610f5f565b865550611045565b601f198416610ff386610dd9565b60005b8281101561101b57848901518255600182019150602085019450602081019050610ff6565b868310156110385784890151611034601f891682610f41565b8355505b6001600288020188555050505b505050505050565b7f4e487b7100000000000000000000000000000000000000000000000000000000600052601160045260246000fd5b600061108782610899565b91507fffffffffffffffffffffffffffffffffffffffffffffffffffffffffffffffff82036110b9576110b861104d565b5b600182019050919050565b60006060820190506110d960008301866109cd565b6110e660208301856109be565b6110f360408301846109cd565b949350505050565b7f5461736b206e6f742079657420636f6d706c6574656400000000000000000000600082015250565b6000611131601683610907565b915061113c826110fb565b602082019050919050565b6000602082019050818103600083015261116081611124565b9050919050565b7f416c726561647920706169640000000000000000000000000000000000000000600082015250565b600061119d600c83610907565b91506111a882611167565b602082019050919050565b600060208201905081810360008301526111cc81611190565b9050919050565b60006040820190506111e860008301856109be565b6111f560208301846109cd565b939250505056fea2646970667358221220588bc6118c748c0eeced2d97819993baa695e8d362bfb216ec0eace064c64e0864736f6c634300081c0033",
  "linkReferences": {},
  "deployedLinkReferences": {}
}