{
  "_format": "hh-sol-artifact-1",
  "contractName": "FirstDemoDAO",
  "sourceName": "contracts/FirstDemoDAO.sol",
  "abi": [
    {
      "inputs": [],
      "stateMutability": "nonpayable",
      "type": "constructor"
    },
    {
      "anonymous": false,
      "inputs": [
        {
          "indexed": false,
          "internalType": "uint256",
          "name": "taskId",
          "type": "uint256"
        }
      ],
      "name": "TaskCompleted",
      "type": "event"
    },
    {
      "anonymous": false,
      "inputs": [
        {
          "indexed": false,
          "internalType": "uint256",
          "name": "taskId",
          "type": "uint256"
        },
        {
          "indexed": false,
          "internalType": "address",
          "name": "assignedTo",
          "type": "address"
        },
        {
          "indexed": false,
          "internalType": "uint256",
          "name": "reward",
          "type": "uint256"
        }
      ],
      "name": "TaskCreated",
      "type": "event"
    },
    {
      "anonymous": false,
      "inputs": [
        {
          "indexed": false,
          "internalType": "uint256",
          "name": "taskId",
          "type": "uint256"
        },
        {
          "indexed": false,
          "internalType": "address",
          "name": "to",
          "type": "address"
        },
        {
          "indexed": false,
          "internalType": "uint256",
          "name": "amount",
          "type": "uint256"
        }
      ],
      "name": "TaskRewarded",
      "type": "event"
    },
    {
      "anonymous": false,
      "inputs": [
        {
          "indexed": false,
          "internalType": "uint256",
          "name": "taskId",
          "type": "uint256"
        },
        {
          "indexed": false,
          "internalType": "address",
          "name": "to",
          "type": "address"
        },
        {
          "indexed": false,
          "internalType": "uint256",
          "name": "doerAmount",
          "type": "uint256"
        },
        {
          "indexed": false,
          "internalType": "uint256",
          "name": "daoAmount",
          "type": "uint256"
        }
      ],
      "name": "TaskRewarded",
      "type": "event"
    },
    {
      "inputs": [
        {
          "internalType": "string",
          "name": "_description",
          "type": "string"
        },
        {
          "internalType": "address",
          "name": "_assignedTo",
          "type": "address"
        },
        {
          "internalType": "uint256",
          "name": "_reward",
          "type": "uint256"
        }
      ],
      "name": "createTask",
      "outputs": [],
      "stateMutability": "nonpayable",
      "type": "function"
    },
    {
      "inputs": [
        {
          "internalType": "uint256",
          "name": "",
          "type": "uint256"
        }
      ],
      "name": "daoRewards",
      "outputs": [
        {
          "internalType": "uint256",
          "name": "",
          "type": "uint256"
        }
      ],
      "stateMutability": "view",
      "type": "function"
    },
    {
      "inputs": [
        {
          "internalType": "uint256",
          "name": "",
          "type": "uint256"
        }
      ],
      "name": "doerRewards",
      "outputs": [
        {
          "internalType": "uint256",
          "name": "",
          "type": "uint256"
        }
      ],
      "stateMutability": "view",
      "type": "function"
    },
    {
      "inputs": [
        {
          "internalType": "address",
          "name": "user",
          "type": "address"
        }
      ],
      "name": "getAllTasksOfTheUser",
      "outputs": [
        {
          "components": [
            {
              "internalType": "string",
              "name": "description",
              "type": "string"
            },
            {
              "internalType": "address",
              "name": "assignedTo",
              "type": "address"
            },
            {
              "internalType": "uint256",
              "name": "reward",
              "type": "uint256"
            },
            {
              "internalType": "bool",
              "name": "isCompleted",
              "type": "bool"
            },
            {
              "internalType": "bool",
              "name": "isPaid",
              "type": "bool"
            }
          ],
          "internalType": "struct FirstDemoDAO.Task[]",
          "name": "",
          "type": "tuple[]"
        }
      ],
      "stateMutability": "view",
      "type": "function"
    },
    {
      "inputs": [
        {
          "internalType": "uint256",
          "name": "taskId",
          "type": "uint256"
        }
      ],
      "name": "getRewardSplits",
      "outputs": [
        {
          "internalType": "uint256",
          "name": "doerAmount",
          "type": "uint256"
        },
        {
          "internalType": "uint256",
          "name": "daoAmount",
          "type": "uint256"
        }
      ],
      "stateMutability": "view",
      "type": "function"
    },
    {
      "inputs": [
        {
          "internalType": "uint256",
          "name": "taskId",
          "type": "uint256"
        }
      ],
      "name": "markTaskAsCompleted",
      "outputs": [],
      "stateMutability": "nonpayable",
      "type": "function"
    },
    {
      "inputs": [],
      "name": "owner",
      "outputs": [
        {
          "internalType": "address",
          "name": "",
          "type": "address"
        }
      ],
      "stateMutability": "view",
      "type": "function"
    },
    {
      "inputs": [
        {
          "internalType": "uint256",
          "name": "taskId",
          "type": "uint256"
        }
      ],
      "name": "rewardTask",
      "outputs": [],
      "stateMutability": "nonpayable",
      "type": "function"
    },
    {
      "inputs": [
        {
          "internalType": "address",
          "name": "_token",
          "type": "address"
        }
      ],
      "name": "setToken",
      "outputs": [],
      "stateMutability": "nonpayable",
      "type": "function"
    },
    {
      "inputs": [],
      "name": "taskCount",
      "outputs": [
        {
          "internalType": "uint256",
          "name": "",
          "type": "uint256"
        }
      ],
      "stateMutability": "view",
      "type": "function"
    },
    {
      "inputs": [
        {
          "internalType": "uint256",
          "name": "",
          "type": "uint256"
        }
      ],
      "name": "tasks",
      "outputs": [
        {
          "internalType": "string",
          "name": "description",
          "type": "string"
        },
        {
          "internalType": "address",
          "name": "assignedTo",
          "type": "address"
        },
        {
          "internalType": "uint256",
          "name": "reward",
          "type": "uint256"
        },
        {
          "internalType": "bool",
          "name": "isCompleted",
          "type": "bool"
        },
        {
          "internalType": "bool",
          "name": "isPaid",
          "type": "bool"
        }
      ],
      "stateMutability": "view",
      "type": "function"
    },
    {
      "inputs": [
        {
          "internalType": "address",
          "name": "",
          "type": "address"
        },
        {
          "internalType": "uint256",
          "name": "",
          "type": "uint256"
        }
      ],
      "name": "tasksByUser",
      "outputs": [
        {
          "internalType": "uint256",
          "name": "",
          "type": "uint256"
        }
      ],
      "stateMutability": "view",
      "type": "function"
    },
    {
      "inputs": [],
      "name": "token",
      "outputs": [
        {
          "internalType": "contract FirstDemoToken",
          "name": "",
          "type": "address"
        }
      ],
      "stateMutability": "view",
      "type": "function"
    }
  ],
  "bytecode": "0x6080604052348015600f57600080fd5b5033600160006101000a81548173ffffffffffffffffffffffffffffffffffffffff021916908373ffffffffffffffffffffffffffffffffffffffff160217905550611e78806100606000396000f3fe608060405234801561001057600080fd5b50600436106100cf5760003560e01c8063b10bcefa1161008c578063ccd5011911610066578063ccd501191461023c578063d42a80f514610258578063d847ec0014610274578063fc0c546a146102a5576100cf565b8063b10bcefa146101d2578063b6cb58a5146101ee578063ca8ed79c1461020c576100cf565b8063144fa6d7146100d4578063366ebc92146100f05780634577b508146101205780638d977672146101505780638da5cb5b1461018457806391f0251a146101a2575b600080fd5b6100ee60048036038101906100e99190611120565b6102c3565b005b61010a60048036038101906101059190611183565b610425565b60405161011791906111bf565b60405180910390f35b61013a60048036038101906101359190611120565b61043d565b60405161014791906113db565b60405180910390f35b61016a60048036038101906101659190611183565b6106cc565b60405161017b959493929190611465565b60405180910390f35b61018c6107c4565b60405161019991906114bf565b60405180910390f35b6101bc60048036038101906101b79190611183565b6107ea565b6040516101c991906111bf565b60405180910390f35b6101ec60048036038101906101e79190611183565b610802565b005b6101f6610955565b60405161020391906111bf565b60405180910390f35b610226600480360381019061022191906114da565b61095b565b60405161023391906111bf565b60405180910390f35b6102566004803603810190610251919061157f565b61098c565b005b610272600480360381019061026d9190611183565b610c25565b005b61028e60048036038101906102899190611183565b611017565b60405161029c9291906115f3565b60405180910390f35b6102ad61104b565b6040516102ba919061167b565b60405180910390f35b600160009054906101000a900473ffffffffffffffffffffffffffffffffffffffff1673ffffffffffffffffffffffffffffffffffffffff163373ffffffffffffffffffffffffffffffffffffffff1614610353576040517f08c379a000000000000000000000000000000000000000000000000000000000815260040161034a906116e2565b60405180910390fd5b600073ffffffffffffffffffffffffffffffffffffffff1660008054906101000a900473ffffffffffffffffffffffffffffffffffffffff1673ffffffffffffffffffffffffffffffffffffffff16146103e2576040517f08c379a00000000000000000000000000000000000000000000000000000000081526004016103d99061174e565b60405180910390fd5b806000806101000a81548173ffffffffffffffffffffffffffffffffffffffff021916908373ffffffffffffffffffffffffffffffffffffffff16021790555050565b60056020528060005260406000206000915090505481565b60606000600460008473ffffffffffffffffffffffffffffffffffffffff1673ffffffffffffffffffffffffffffffffffffffff1681526020019081526020016000208054806020026020016040519081016040528092919081815260200182805480156104ca57602002820191906000526020600020905b8154815260200190600101908083116104b6575b505050505090506000815167ffffffffffffffff8111156104ee576104ed61176e565b5b60405190808252806020026020018201604052801561052757816020015b61051461106f565b81526020019060019003908161050c5790505b50905060005b82518110156106c1576003600084838151811061054d5761054c61179d565b5b602002602001015181526020019081526020016000206040518060a001604052908160008201805461057e906117fb565b80601f01602080910402602001604051908101604052809291908181526020018280546105aa906117fb565b80156105f75780601f106105cc576101008083540402835291602001916105f7565b820191906000526020600020905b8154815290600101906020018083116105da57829003601f168201915b505050505081526020016001820160009054906101000a900473ffffffffffffffffffffffffffffffffffffffff1673ffffffffffffffffffffffffffffffffffffffff1673ffffffffffffffffffffffffffffffffffffffff168152602001600282015481526020016003820160009054906101000a900460ff161515151581526020016003820160019054906101000a900460ff1615151515815250508282815181106106a9576106a861179d565b5b6020026020010181905250808060010191505061052d565b508092505050919050565b60036020528060005260406000206000915090508060000180546106ef906117fb565b80601f016020809104026020016040519081016040528092919081815260200182805461071b906117fb565b80156107685780601f1061073d57610100808354040283529160200191610768565b820191906000526020600020905b81548152906001019060200180831161074b57829003601f168201915b5050505050908060010160009054906101000a900473ffffffffffffffffffffffffffffffffffffffff16908060020154908060030160009054906101000a900460ff16908060030160019054906101000a900460ff16905085565b600160009054906101000a900473ffffffffffffffffffffffffffffffffffffffff1681565b60066020528060005260406000206000915090505481565b60006003600083815260200190815260200160002090508060010160009054906101000a900473ffffffffffffffffffffffffffffffffffffffff1673ffffffffffffffffffffffffffffffffffffffff163373ffffffffffffffffffffffffffffffffffffffff16146108ab576040517f08c379a00000000000000000000000000000000000000000000000000000000081526004016108a290611878565b60405180910390fd5b8060030160009054906101000a900460ff16156108fd576040517f08c379a00000000000000000000000000000000000000000000000000000000081526004016108f4906118e4565b60405180910390fd5b60018160030160006101000a81548160ff0219169083151502179055507fc1fa7142cfb933d0855114a3bffde296944c30b727f297c14d0db4d553d3a5c78260405161094991906111bf565b60405180910390a15050565b60025481565b6004602052816000526040600020818154811061097757600080fd5b90600052602060002001600091509150505481565b600160009054906101000a900473ffffffffffffffffffffffffffffffffffffffff1673ffffffffffffffffffffffffffffffffffffffff163373ffffffffffffffffffffffffffffffffffffffff1614610a1c576040517f08c379a0000000000000000000000000000000000000000000000000000000008152600401610a13906116e2565b60405180910390fd5b6040518060a0016040528085858080601f016020809104026020016040519081016040528093929190818152602001838380828437600081840152601f19601f8201169050808301925050505050505081526020018373ffffffffffffffffffffffffffffffffffffffff168152602001828152602001600015158152602001600015158152506003600060025481526020019081526020016000206000820151816000019081610acd9190611aa6565b5060208201518160010160006101000a81548173ffffffffffffffffffffffffffffffffffffffff021916908373ffffffffffffffffffffffffffffffffffffffff1602179055506040820151816002015560608201518160030160006101000a81548160ff02191690831515021790555060808201518160030160016101000a81548160ff021916908315150217905550905050600460008373ffffffffffffffffffffffffffffffffffffffff1673ffffffffffffffffffffffffffffffffffffffff168152602001908152602001600020600254908060018154018082558091505060019003906000526020600020016000909190919091505560026000815480929190610bdd90611ba7565b91905055507f6cf53aa7292e664152c2ea948c3b3c95d4b05c36daeb2626d0293473c4a4a1536002548383604051610c1793929190611bef565b60405180910390a150505050565b600160009054906101000a900473ffffffffffffffffffffffffffffffffffffffff1673ffffffffffffffffffffffffffffffffffffffff163373ffffffffffffffffffffffffffffffffffffffff1614610cb5576040517f08c379a0000000000000000000000000000000000000000000000000000000008152600401610cac906116e2565b60405180910390fd5b60006003600083815260200190815260200160002090508060030160009054906101000a900460ff16610d1d576040517f08c379a0000000000000000000000000000000000000000000000000000000008152600401610d1490611c72565b60405180910390fd5b8060030160019054906101000a900460ff1615610d6f576040517f08c379a0000000000000000000000000000000000000000000000000000000008152600401610d6690611cde565b60405180910390fd5b60018160030160016101000a81548160ff0219169083151502179055506000606460288360020154610da19190611cfe565b610dab9190611d6f565b90506000818360020154610dbf9190611da0565b905081600560008681526020019081526020016000208190555080600660008681526020019081526020016000208190555060008054906101000a900473ffffffffffffffffffffffffffffffffffffffff1673ffffffffffffffffffffffffffffffffffffffff166340c10f198460010160009054906101000a900473ffffffffffffffffffffffffffffffffffffffff16846040518363ffffffff1660e01b8152600401610e70929190611dd4565b600060405180830381600087803b158015610e8a57600080fd5b505af1158015610e9e573d6000803e3d6000fd5b5050505060008054906101000a900473ffffffffffffffffffffffffffffffffffffffff1673ffffffffffffffffffffffffffffffffffffffff166340c10f19600160009054906101000a900473ffffffffffffffffffffffffffffffffffffffff16836040518363ffffffff1660e01b8152600401610f1f929190611dd4565b600060405180830381600087803b158015610f3957600080fd5b505af1158015610f4d573d6000803e3d6000fd5b505050507f94c3a14cb6cd221eafa3796faad63a0cd14bb9a4e2607ca79d8d0aea5fdf0511848460010160009054906101000a900473ffffffffffffffffffffffffffffffffffffffff1684604051610fa893929190611bef565b60405180910390a17fdc1806daa51f3c2721563720ad5129897d3fc2725507ef61a9fb5f46b0dd480d848460010160009054906101000a900473ffffffffffffffffffffffffffffffffffffffff1684846040516110099493929190611dfd565b60405180910390a150505050565b6000806005600084815260200190815260200160002054600660008581526020019081526020016000205491509150915091565b60008054906101000a900473ffffffffffffffffffffffffffffffffffffffff1681565b6040518060a0016040528060608152602001600073ffffffffffffffffffffffffffffffffffffffff168152602001600081526020016000151581526020016000151581525090565b600080fd5b600080fd5b600073ffffffffffffffffffffffffffffffffffffffff82169050919050565b60006110ed826110c2565b9050919050565b6110fd816110e2565b811461110857600080fd5b50565b60008135905061111a816110f4565b92915050565b600060208284031215611136576111356110b8565b5b60006111448482850161110b565b91505092915050565b6000819050919050565b6111608161114d565b811461116b57600080fd5b50565b60008135905061117d81611157565b92915050565b600060208284031215611199576111986110b8565b5b60006111a78482850161116e565b91505092915050565b6111b98161114d565b82525050565b60006020820190506111d460008301846111b0565b92915050565b600081519050919050565b600082825260208201905092915050565b6000819050602082019050919050565b600081519050919050565b600082825260208201905092915050565b60005b83811015611240578082015181840152602081019050611225565b60008484015250505050565b6000601f19601f8301169050919050565b600061126882611206565b6112728185611211565b9350611282818560208601611222565b61128b8161124c565b840191505092915050565b61129f816110e2565b82525050565b6112ae8161114d565b82525050565b60008115159050919050565b6112c9816112b4565b82525050565b600060a08301600083015184820360008601526112ec828261125d565b91505060208301516113016020860182611296565b50604083015161131460408601826112a5565b50606083015161132760608601826112c0565b50608083015161133a60808601826112c0565b508091505092915050565b600061135183836112cf565b905092915050565b6000602082019050919050565b6000611371826111da565b61137b81856111e5565b93508360208202850161138d856111f6565b8060005b858110156113c957848403895281516113aa8582611345565b94506113b583611359565b925060208a01995050600181019050611391565b50829750879550505050505092915050565b600060208201905081810360008301526113f58184611366565b905092915050565b600082825260208201905092915050565b600061141982611206565b61142381856113fd565b9350611433818560208601611222565b61143c8161124c565b840191505092915050565b611450816110e2565b82525050565b61145f816112b4565b82525050565b600060a082019050818103600083015261147f818861140e565b905061148e6020830187611447565b61149b60408301866111b0565b6114a86060830185611456565b6114b56080830184611456565b9695505050505050565b60006020820190506114d46000830184611447565b92915050565b600080604083850312156114f1576114f06110b8565b5b60006114ff8582860161110b565b92505060206115108582860161116e565b9150509250929050565b600080fd5b600080fd5b600080fd5b60008083601f84011261153f5761153e61151a565b5b8235905067ffffffffffffffff81111561155c5761155b61151f565b5b60208301915083600182028301111561157857611577611524565b5b9250929050565b60008060008060608587031215611599576115986110b8565b5b600085013567ffffffffffffffff8111156115b7576115b66110bd565b5b6115c387828801611529565b945094505060206115d68782880161110b565b92505060406115e78782880161116e565b91505092959194509250565b600060408201905061160860008301856111b0565b61161560208301846111b0565b9392505050565b6000819050919050565b600061164161163c611637846110c2565b61161c565b6110c2565b9050919050565b600061165382611626565b9050919050565b600061166582611648565b9050919050565b6116758161165a565b82525050565b6000602082019050611690600083018461166c565b92915050565b7f4e6f74206f776e65720000000000000000000000000000000000000000000000600082015250565b60006116cc6009836113fd565b91506116d782611696565b602082019050919050565b600060208201905081810360008301526116fb816116bf565b9050919050565b7f546f6b656e20616c726564792073657400000000000000000000000000000000600082015250565b60006117386010836113fd565b915061174382611702565b602082019050919050565b600060208201905081810360008301526117678161172b565b9050919050565b7f4e487b7100000000000000000000000000000000000000000000000000000000600052604160045260246000fd5b7f4e487b7100000000000000000000000000000000000000000000000000000000600052603260045260246000fd5b7f4e487b7100000000000000000000000000000000000000000000000000000000600052602260045260246000fd5b6000600282049050600182168061181357607f821691505b602082108103611826576118256117cc565b5b50919050565b7f4e6f742061737369676e656420746f0000000000000000000000000000000000600082015250565b6000611862600f836113fd565b915061186d8261182c565b602082019050919050565b6000602082019050818103600083015261189181611855565b9050919050565b7f5461736b20636f6d706c6574656420616c726561647900000000000000000000600082015250565b60006118ce6016836113fd565b91506118d982611898565b602082019050919050565b600060208201905081810360008301526118fd816118c1565b9050919050565b60008190508160005260206000209050919050565b60006020601f8301049050919050565b600082821b905092915050565b6000600883026119667fffffffffffffffffffffffffffffffffffffffffffffffffffffffffffffffff82611929565b6119708683611929565b95508019841693508086168417925050509392505050565b60006119a361199e6119998461114d565b61161c565b61114d565b9050919050565b6000819050919050565b6119bd83611988565b6119d16119c9826119aa565b848454611936565b825550505050565b600090565b6119e66119d9565b6119f18184846119b4565b505050565b5b81811015611a1557611a0a6000826119de565b6001810190506119f7565b5050565b601f821115611a5a57611a2b81611904565b611a3484611919565b81016020851015611a43578190505b611a57611a4f85611919565b8301826119f6565b50505b505050565b600082821c905092915050565b6000611a7d60001984600802611a5f565b1980831691505092915050565b6000611a968383611a6c565b9150826002028217905092915050565b611aaf82611206565b67ffffffffffffffff811115611ac857611ac761176e565b5b611ad282546117fb565b611add828285611a19565b600060209050601f831160018114611b105760008415611afe578287015190505b611b088582611a8a565b865550611b70565b601f198416611b1e86611904565b60005b82811015611b4657848901518255600182019150602085019450602081019050611b21565b86831015611b635784890151611b5f601f891682611a6c565b8355505b6001600288020188555050505b505050505050565b7f4e487b7100000000000000000000000000000000000000000000000000000000600052601160045260246000fd5b6000611bb28261114d565b91507fffffffffffffffffffffffffffffffffffffffffffffffffffffffffffffffff8203611be457611be3611b78565b5b600182019050919050565b6000606082019050611c0460008301866111b0565b611c116020830185611447565b611c1e60408301846111b0565b949350505050565b7f5461736b206e6f742079657420636f6d706c6574656400000000000000000000600082015250565b6000611c5c6016836113fd565b9150611c6782611c26565b602082019050919050565b60006020820190508181036000830152611c8b81611c4f565b9050919050565b7f416c726561647920706169640000000000000000000000000000000000000000600082015250565b6000611cc8600c836113fd565b9150611cd382611c92565b602082019050919050565b60006020820190508181036000830152611cf781611cbb565b9050919050565b6000611d098261114d565b9150611d148361114d565b9250828202611d228161114d565b91508282048414831517611d3957611d38611b78565b5b5092915050565b7f4e487b7100000000000000000000000000000000000000000000000000000000600052601260045260246000fd5b6000611d7a8261114d565b9150611d858361114d565b925082611d9557611d94611d40565b5b828204905092915050565b6000611dab8261114d565b9150611db68361114d565b9250828203905081811115611dce57611dcd611b78565b5b92915050565b6000604082019050611de96000830185611447565b611df660208301846111b0565b9392505050565b6000608082019050611e1260008301876111b0565b611e1f6020830186611447565b611e2c60408301856111b0565b611e3960608301846111b0565b9594505050505056fea2646970667358221220a6f9ccc8a59d260c5530222a131056a2b85de210a026b3e312967c7f9eb1c5e864736f6c634300081c0033",
  "linkReferences": {},
  "deployedLinkReferences": {}
}