{
  "contracts/FirstDemoDAO.sol": {
    "FirstDemoDAO": {
      "abi": [
        {
          "inputs": [
            {
              "internalType": "address",
              "name": "_token",
              "type": "address"
            }
          ],
          "stateMutability": "nonpayable",
          "type": "constructor"
        },
        {
          "anonymous": false,
          "inputs": [
            {
              "indexed": false,
              "internalType": "uint256",
              "name": "taskId",
              "type": "uint256"
            }
          ],
          "name": "TaskCompleted",
          "type": "event"
        },
        {
          "anonymous": false,
          "inputs": [
            {
              "indexed": false,
              "internalType": "uint256",
              "name": "taskId",
              "type": "uint256"
            },
            {
              "indexed": false,
              "internalType": "address",
              "name": "assignedTo",
              "type": "address"
            },
            {
              "indexed": false,
              "internalType": "uint256",
              "name": "reward",
              "type": "uint256"
            }
          ],
          "name": "TaskCreated",
          "type": "event"
        },
        {
          "anonymous": false,
          "inputs": [
            {
              "indexed": false,
              "internalType": "uint256",
              "name": "taskId",
              "type": "uint256"
            },
            {
              "indexed": false,
              "internalType": "address",
              "name": "to",
              "type": "address"
            },
            {
              "indexed": false,
              "internalType": "uint256",
              "name": "amount",
              "type": "uint256"
            }
          ],
          "name": "TaskRewarded",
          "type": "event"
        },
        {
          "inputs": [
            {
              "internalType": "string",
              "name": "_description",
              "type": "string"
            },
            {
              "internalType": "address",
              "name": "_assignedTo",
              "type": "address"
            },
            {
              "internalType": "uint256",
              "name": "_reward",
              "type": "uint256"
            }
          ],
          "name": "createTask",
          "outputs": [],
          "stateMutability": "nonpayable",
          "type": "function"
        },
        {
          "inputs": [
            {
              "internalType": "uint256",
              "name": "taskId",
              "type": "uint256"
            }
          ],
          "name": "markTaskAsCompleted",
          "outputs": [],
          "stateMutability": "nonpayable",
          "type": "function"
        },
        {
          "inputs": [],
          "name": "owner",
          "outputs": [
            {
              "internalType": "address",
              "name": "",
              "type": "address"
            }
          ],
          "stateMutability": "view",
          "type": "function"
        },
        {
          "inputs": [
            {
              "internalType": "uint256",
              "name": "taskId",
              "type": "uint256"
            }
          ],
          "name": "rewardTask",
          "outputs": [],
          "stateMutability": "nonpayable",
          "type": "function"
        },
        {
          "inputs": [],
          "name": "taskCount",
          "outputs": [
            {
              "internalType": "uint256",
              "name": "",
              "type": "uint256"
            }
          ],
          "stateMutability": "view",
          "type": "function"
        },
        {
          "inputs": [
            {
              "internalType": "uint256",
              "name": "",
              "type": "uint256"
            }
          ],
          "name": "tasks",
          "outputs": [
            {
              "internalType": "string",
              "name": "description",
              "type": "string"
            },
            {
              "internalType": "address",
              "name": "assignedTo",
              "type": "address"
            },
            {
              "internalType": "uint256",
              "name": "reward",
              "type": "uint256"
            },
            {
              "internalType": "bool",
              "name": "isCompleted",
              "type": "bool"
            },
            {
              "internalType": "bool",
              "name": "isPaid",
              "type": "bool"
            }
          ],
          "stateMutability": "view",
          "type": "function"
        },
        {
          "inputs": [],
          "name": "token",
          "outputs": [
            {
              "internalType": "contract FirstDemoToken",
              "name": "",
              "type": "address"
            }
          ],
          "stateMutability": "view",
          "type": "function"
        }
      ],
      "evm": {
        "bytecode": {
          "linkReferences": {},
          "object": "608060405234801561001057600080fd5b5060405161138a38038061138a8339818101604052810190610032919061011c565b806000806101000a81548173ffffffffffffffffffffffffffffffffffffffff021916908373ffffffffffffffffffffffffffffffffffffffff16021790555033600160006101000a81548173ffffffffffffffffffffffffffffffffffffffff021916908373ffffffffffffffffffffffffffffffffffffffff16021790555050610149565b600080fd5b600073ffffffffffffffffffffffffffffffffffffffff82169050919050565b60006100e9826100be565b9050919050565b6100f9816100de565b811461010457600080fd5b50565b600081519050610116816100f0565b92915050565b600060208284031215610132576101316100b9565b5b600061014084828501610107565b91505092915050565b611232806101586000396000f3fe608060405234801561001057600080fd5b506004361061007d5760003560e01c8063b6cb58a51161005b578063b6cb58a5146100f0578063ccd501191461010e578063d42a80f51461012a578063fc0c546a146101465761007d565b80638d977672146100825780638da5cb5b146100b6578063b10bcefa146100d4575b600080fd5b61009c600480360381019061009791906108cf565b610164565b6040516100ad9594939291906109f7565b60405180910390f35b6100be61025c565b6040516100cb9190610a51565b60405180910390f35b6100ee60048036038101906100e991906108cf565b610282565b005b6100f86103d5565b6040516101059190610a6c565b60405180910390f35b61012860048036038101906101239190610b18565b6103db565b005b610144600480360381019061013f91906108cf565b61060c565b005b61014e61086b565b60405161015b9190610beb565b60405180910390f35b600360205280600052604060002060009150905080600001805461018790610c35565b80601f01602080910402602001604051908101604052809291908181526020018280546101b390610c35565b80156102005780601f106101d557610100808354040283529160200191610200565b820191906000526020600020905b8154815290600101906020018083116101e357829003601f168201915b5050505050908060010160009054906101000a900473ffffffffffffffffffffffffffffffffffffffff16908060020154908060030160009054906101000a900460ff16908060030160019054906101000a900460ff16905085565b600160009054906101000a900473ffffffffffffffffffffffffffffffffffffffff1681565b60006003600083815260200190815260200160002090508060010160009054906101000a900473ffffffffffffffffffffffffffffffffffffffff1673ffffffffffffffffffffffffffffffffffffffff163373ffffffffffffffffffffffffffffffffffffffff161461032b576040517f08c379a000000000000000000000000000000000000000000000000000000000815260040161032290610cb2565b60405180910390fd5b8060030160009054906101000a900460ff161561037d576040517f08c379a000000000000000000000000000000000000000000000000000000000815260040161037490610d1e565b60405180910390fd5b60018160030160006101000a81548160ff0219169083151502179055507fc1fa7142cfb933d0855114a3bffde296944c30b727f297c14d0db4d553d3a5c7826040516103c99190610a6c565b60405180910390a15050565b60025481565b600160009054906101000a900473ffffffffffffffffffffffffffffffffffffffff1673ffffffffffffffffffffffffffffffffffffffff163373ffffffffffffffffffffffffffffffffffffffff161461046b576040517f08c379a000000000000000000000000000000000000000000000000000000000815260040161046290610d8a565b60405180910390fd5b6040518060a0016040528085858080601f016020809104026020016040519081016040528093929190818152602001838380828437600081840152601f19601f8201169050808301925050505050505081526020018373ffffffffffffffffffffffffffffffffffffffff16815260200182815260200160001515815260200160001515815250600360006002548152602001908152602001600020600082015181600001908161051c9190610f7b565b5060208201518160010160006101000a81548173ffffffffffffffffffffffffffffffffffffffff021916908373ffffffffffffffffffffffffffffffffffffffff1602179055506040820151816002015560608201518160030160006101000a81548160ff02191690831515021790555060808201518160030160016101000a81548160ff021916908315150217905550905050600260008154809291906105c49061107c565b91905055507f6cf53aa7292e664152c2ea948c3b3c95d4b05c36daeb2626d0293473c4a4a15360025483836040516105fe939291906110c4565b60405180910390a150505050565b600160009054906101000a900473ffffffffffffffffffffffffffffffffffffffff1673ffffffffffffffffffffffffffffffffffffffff163373ffffffffffffffffffffffffffffffffffffffff161461069c576040517f08c379a000000000000000000000000000000000000000000000000000000000815260040161069390610d8a565b60405180910390fd5b60006003600083815260200190815260200160002090508060030160009054906101000a900460ff16610704576040517f08c379a00000000000000000000000000000000000000000000000000000000081526004016106fb90611147565b60405180910390fd5b8060030160019054906101000a900460ff1615610756576040517f08c379a000000000000000000000000000000000000000000000000000000000815260040161074d906111b3565b60405180910390fd5b60018160030160016101000a81548160ff02191690831515021790555060008054906101000a900473ffffffffffffffffffffffffffffffffffffffff1673ffffffffffffffffffffffffffffffffffffffff166340c10f198260010160009054906101000a900473ffffffffffffffffffffffffffffffffffffffff1683600201546040518363ffffffff1660e01b81526004016107f69291906111d3565b600060405180830381600087803b15801561081057600080fd5b505af1158015610824573d6000803e3d6000fd5b505050507f94c3a14cb6cd221eafa3796faad63a0cd14bb9a4e2607ca79d8d0aea5fdf05118233836002015460405161085f939291906110c4565b60405180910390a15050565b60008054906101000a900473ffffffffffffffffffffffffffffffffffffffff1681565b600080fd5b600080fd5b6000819050919050565b6108ac81610899565b81146108b757600080fd5b50565b6000813590506108c9816108a3565b92915050565b6000602082840312156108e5576108e461088f565b5b60006108f3848285016108ba565b91505092915050565b600081519050919050565b600082825260208201905092915050565b60005b8381101561093657808201518184015260208101905061091b565b60008484015250505050565b6000601f19601f8301169050919050565b600061095e826108fc565b6109688185610907565b9350610978818560208601610918565b61098181610942565b840191505092915050565b600073ffffffffffffffffffffffffffffffffffffffff82169050919050565b60006109b78261098c565b9050919050565b6109c7816109ac565b82525050565b6109d681610899565b82525050565b60008115159050919050565b6109f1816109dc565b82525050565b600060a0820190508181036000830152610a118188610953565b9050610a2060208301876109be565b610a2d60408301866109cd565b610a3a60608301856109e8565b610a4760808301846109e8565b9695505050505050565b6000602082019050610a6660008301846109be565b92915050565b6000602082019050610a8160008301846109cd565b92915050565b600080fd5b600080fd5b600080fd5b60008083601f840112610aac57610aab610a87565b5b8235905067ffffffffffffffff811115610ac957610ac8610a8c565b5b602083019150836001820283011115610ae557610ae4610a91565b5b9250929050565b610af5816109ac565b8114610b0057600080fd5b50565b600081359050610b1281610aec565b92915050565b60008060008060608587031215610b3257610b3161088f565b5b600085013567ffffffffffffffff811115610b5057610b4f610894565b5b610b5c87828801610a96565b94509450506020610b6f87828801610b03565b9250506040610b80878288016108ba565b91505092959194509250565b6000819050919050565b6000610bb1610bac610ba78461098c565b610b8c565b61098c565b9050919050565b6000610bc382610b96565b9050919050565b6000610bd582610bb8565b9050919050565b610be581610bca565b82525050565b6000602082019050610c006000830184610bdc565b92915050565b7f4e487b7100000000000000000000000000000000000000000000000000000000600052602260045260246000fd5b60006002820490506001821680610c4d57607f821691505b602082108103610c6057610c5f610c06565b5b50919050565b7f4e6f742061737369676e656420746f0000000000000000000000000000000000600082015250565b6000610c9c600f83610907565b9150610ca782610c66565b602082019050919050565b60006020820190508181036000830152610ccb81610c8f565b9050919050565b7f5461736b20636f6d706c6574656420616c726561647900000000000000000000600082015250565b6000610d08601683610907565b9150610d1382610cd2565b602082019050919050565b60006020820190508181036000830152610d3781610cfb565b9050919050565b7f4e6f74206f776e65720000000000000000000000000000000000000000000000600082015250565b6000610d74600983610907565b9150610d7f82610d3e565b602082019050919050565b60006020820190508181036000830152610da381610d67565b9050919050565b7f4e487b7100000000000000000000000000000000000000000000000000000000600052604160045260246000fd5b60008190508160005260206000209050919050565b60006020601f8301049050919050565b600082821b905092915050565b600060088302610e3b7fffffffffffffffffffffffffffffffffffffffffffffffffffffffffffffffff82610dfe565b610e458683610dfe565b95508019841693508086168417925050509392505050565b6000610e78610e73610e6e84610899565b610b8c565b610899565b9050919050565b6000819050919050565b610e9283610e5d565b610ea6610e9e82610e7f565b848454610e0b565b825550505050565b600090565b610ebb610eae565b610ec6818484610e89565b505050565b5b81811015610eea57610edf600082610eb3565b600181019050610ecc565b5050565b601f821115610f2f57610f0081610dd9565b610f0984610dee565b81016020851015610f18578190505b610f2c610f2485610dee565b830182610ecb565b50505b505050565b600082821c905092915050565b6000610f5260001984600802610f34565b1980831691505092915050565b6000610f6b8383610f41565b9150826002028217905092915050565b610f84826108fc565b67ffffffffffffffff811115610f9d57610f9c610daa565b5b610fa78254610c35565b610fb2828285610eee565b600060209050601f831160018114610fe55760008415610fd3578287015190505b610fdd8582610f5f565b865550611045565b601f198416610ff386610dd9565b60005b8281101561101b57848901518255600182019150602085019450602081019050610ff6565b868310156110385784890151611034601f891682610f41565b8355505b6001600288020188555050505b505050505050565b7f4e487b7100000000000000000000000000000000000000000000000000000000600052601160045260246000fd5b600061108782610899565b91507fffffffffffffffffffffffffffffffffffffffffffffffffffffffffffffffff82036110b9576110b861104d565b5b600182019050919050565b60006060820190506110d960008301866109cd565b6110e660208301856109be565b6110f360408301846109cd565b949350505050565b7f5461736b206e6f742079657420636f6d706c6574656400000000000000000000600082015250565b6000611131601683610907565b915061113c826110fb565b602082019050919050565b6000602082019050818103600083015261116081611124565b9050919050565b7f416c726561647920706169640000000000000000000000000000000000000000600082015250565b600061119d600c83610907565b91506111a882611167565b602082019050919050565b600060208201905081810360008301526111cc81611190565b9050919050565b60006040820190506111e860008301856109be565b6111f560208301846109cd565b939250505056fea2646970667358221220588bc6118c748c0eeced2d97819993baa695e8d362bfb216ec0eace064c64e0864736f6c634300081c0033",
          "opcodes": "PUSH1 0x80 PUSH1 0x40 MSTORE CALLVALUE DUP1 ISZERO PUSH2 0x10 JUMPI PUSH1 0x0 DUP1 REVERT JUMPDEST POP PUSH1 0x40 MLOAD PUSH2 0x138A CODESIZE SUB DUP1 PUSH2 0x138A DUP4 CODECOPY DUP2 DUP2 ADD PUSH1 0x40 MSTORE DUP2 ADD SWAP1 PUSH2 0x32 SWAP2 SWAP1 PUSH2 0x11C JUMP JUMPDEST DUP1 PUSH1 0x0 DUP1 PUSH2 0x100 EXP DUP2 SLOAD DUP2 PUSH20 0xFFFFFFFFFFFFFFFFFFFFFFFFFFFFFFFFFFFFFFFF MUL NOT AND SWAP1 DUP4 PUSH20 0xFFFFFFFFFFFFFFFFFFFFFFFFFFFFFFFFFFFFFFFF AND MUL OR SWAP1 SSTORE POP CALLER PUSH1 0x1 PUSH1 0x0 PUSH2 0x100 EXP DUP2 SLOAD DUP2 PUSH20 0xFFFFFFFFFFFFFFFFFFFFFFFFFFFFFFFFFFFFFFFF MUL NOT AND SWAP1 DUP4 PUSH20 0xFFFFFFFFFFFFFFFFFFFFFFFFFFFFFFFFFFFFFFFF AND MUL OR SWAP1 SSTORE POP POP PUSH2 0x149 JUMP JUMPDEST PUSH1 0x0 DUP1 REVERT JUMPDEST PUSH1 0x0 PUSH20 0xFFFFFFFFFFFFFFFFFFFFFFFFFFFFFFFFFFFFFFFF DUP3 AND SWAP1 POP SWAP2 SWAP1 POP JUMP JUMPDEST PUSH1 0x0 PUSH2 0xE9 DUP3 PUSH2 0xBE JUMP JUMPDEST SWAP1 POP SWAP2 SWAP1 POP JUMP JUMPDEST PUSH2 0xF9 DUP2 PUSH2 0xDE JUMP JUMPDEST DUP2 EQ PUSH2 0x104 JUMPI PUSH1 0x0 DUP1 REVERT JUMPDEST POP JUMP JUMPDEST PUSH1 0x0 DUP2 MLOAD SWAP1 POP PUSH2 0x116 DUP2 PUSH2 0xF0 JUMP JUMPDEST SWAP3 SWAP2 POP POP JUMP JUMPDEST PUSH1 0x0 PUSH1 0x20 DUP3 DUP5 SUB SLT ISZERO PUSH2 0x132 JUMPI PUSH2 0x131 PUSH2 0xB9 JUMP JUMPDEST JUMPDEST PUSH1 0x0 PUSH2 0x140 DUP5 DUP3 DUP6 ADD PUSH2 0x107 JUMP JUMPDEST SWAP2 POP POP SWAP3 SWAP2 POP POP JUMP JUMPDEST PUSH2 0x1232 DUP1 PUSH2 0x158 PUSH1 0x0 CODECOPY PUSH1 0x0 RETURN INVALID PUSH1 0x80 PUSH1 0x40 MSTORE CALLVALUE DUP1 ISZERO PUSH2 0x10 JUMPI PUSH1 0x0 DUP1 REVERT JUMPDEST POP PUSH1 0x4 CALLDATASIZE LT PUSH2 0x7D JUMPI PUSH1 0x0 CALLDATALOAD PUSH1 0xE0 SHR DUP1 PUSH4 0xB6CB58A5 GT PUSH2 0x5B JUMPI DUP1 PUSH4 0xB6CB58A5 EQ PUSH2 0xF0 JUMPI DUP1 PUSH4 0xCCD50119 EQ PUSH2 0x10E JUMPI DUP1 PUSH4 0xD42A80F5 EQ PUSH2 0x12A JUMPI DUP1 PUSH4 0xFC0C546A EQ PUSH2 0x146 JUMPI PUSH2 0x7D JUMP JUMPDEST DUP1 PUSH4 0x8D977672 EQ PUSH2 0x82 JUMPI DUP1 PUSH4 0x8DA5CB5B EQ PUSH2 0xB6 JUMPI DUP1 PUSH4 0xB10BCEFA EQ PUSH2 0xD4 JUMPI JUMPDEST PUSH1 0x0 DUP1 REVERT JUMPDEST PUSH2 0x9C PUSH1 0x4 DUP1 CALLDATASIZE SUB DUP2 ADD SWAP1 PUSH2 0x97 SWAP2 SWAP1 PUSH2 0x8CF JUMP JUMPDEST PUSH2 0x164 JUMP JUMPDEST PUSH1 0x40 MLOAD PUSH2 0xAD SWAP6 SWAP5 SWAP4 SWAP3 SWAP2 SWAP1 PUSH2 0x9F7 JUMP JUMPDEST PUSH1 0x40 MLOAD DUP1 SWAP2 SUB SWAP1 RETURN JUMPDEST PUSH2 0xBE PUSH2 0x25C JUMP JUMPDEST PUSH1 0x40 MLOAD PUSH2 0xCB SWAP2 SWAP1 PUSH2 0xA51 JUMP JUMPDEST PUSH1 0x40 MLOAD DUP1 SWAP2 SUB SWAP1 RETURN JUMPDEST PUSH2 0xEE PUSH1 0x4 DUP1 CALLDATASIZE SUB DUP2 ADD SWAP1 PUSH2 0xE9 SWAP2 SWAP1 PUSH2 0x8CF JUMP JUMPDEST PUSH2 0x282 JUMP JUMPDEST STOP JUMPDEST PUSH2 0xF8 PUSH2 0x3D5 JUMP JUMPDEST PUSH1 0x40 MLOAD PUSH2 0x105 SWAP2 SWAP1 PUSH2 0xA6C JUMP JUMPDEST PUSH1 0x40 MLOAD DUP1 SWAP2 SUB SWAP1 RETURN JUMPDEST PUSH2 0x128 PUSH1 0x4 DUP1 CALLDATASIZE SUB DUP2 ADD SWAP1 PUSH2 0x123 SWAP2 SWAP1 PUSH2 0xB18 JUMP JUMPDEST PUSH2 0x3DB JUMP JUMPDEST STOP JUMPDEST PUSH2 0x144 PUSH1 0x4 DUP1 CALLDATASIZE SUB DUP2 ADD SWAP1 PUSH2 0x13F SWAP2 SWAP1 PUSH2 0x8CF JUMP JUMPDEST PUSH2 0x60C JUMP JUMPDEST STOP JUMPDEST PUSH2 0x14E PUSH2 0x86B JUMP JUMPDEST PUSH1 0x40 MLOAD PUSH2 0x15B SWAP2 SWAP1 PUSH2 0xBEB JUMP JUMPDEST PUSH1 0x40 MLOAD DUP1 SWAP2 SUB SWAP1 RETURN JUMPDEST PUSH1 0x3 PUSH1 0x20 MSTORE DUP1 PUSH1 0x0 MSTORE PUSH1 0x40 PUSH1 0x0 KECCAK256 PUSH1 0x0 SWAP2 POP SWAP1 POP DUP1 PUSH1 0x0 ADD DUP1 SLOAD PUSH2 0x187 SWAP1 PUSH2 0xC35 JUMP JUMPDEST DUP1 PUSH1 0x1F ADD PUSH1 0x20 DUP1 SWAP2 DIV MUL PUSH1 0x20 ADD PUSH1 0x40 MLOAD SWAP1 DUP2 ADD PUSH1 0x40 MSTORE DUP1 SWAP3 SWAP2 SWAP1 DUP2 DUP2 MSTORE PUSH1 0x20 ADD DUP3 DUP1 SLOAD PUSH2 0x1B3 SWAP1 PUSH2 0xC35 JUMP JUMPDEST DUP1 ISZERO PUSH2 0x200 JUMPI DUP1 PUSH1 0x1F LT PUSH2 0x1D5 JUMPI PUSH2 0x100 DUP1 DUP4 SLOAD DIV MUL DUP4 MSTORE SWAP2 PUSH1 0x20 ADD SWAP2 PUSH2 0x200 JUMP JUMPDEST DUP3 ADD SWAP2 SWAP1 PUSH1 0x0 MSTORE PUSH1 0x20 PUSH1 0x0 KECCAK256 SWAP1 JUMPDEST DUP2 SLOAD DUP2 MSTORE SWAP1 PUSH1 0x1 ADD SWAP1 PUSH1 0x20 ADD DUP1 DUP4 GT PUSH2 0x1E3 JUMPI DUP3 SWAP1 SUB PUSH1 0x1F AND DUP3 ADD SWAP2 JUMPDEST POP POP POP POP POP SWAP1 DUP1 PUSH1 0x1 ADD PUSH1 0x0 SWAP1 SLOAD SWAP1 PUSH2 0x100 EXP SWAP1 DIV PUSH20 0xFFFFFFFFFFFFFFFFFFFFFFFFFFFFFFFFFFFFFFFF AND SWAP1 DUP1 PUSH1 0x2 ADD SLOAD SWAP1 DUP1 PUSH1 0x3 ADD PUSH1 0x0 SWAP1 SLOAD SWAP1 PUSH2 0x100 EXP SWAP1 DIV PUSH1 0xFF AND SWAP1 DUP1 PUSH1 0x3 ADD PUSH1 0x1 SWAP1 SLOAD SWAP1 PUSH2 0x100 EXP SWAP1 DIV PUSH1 0xFF AND SWAP1 POP DUP6 JUMP JUMPDEST PUSH1 0x1 PUSH1 0x0 SWAP1 SLOAD SWAP1 PUSH2 0x100 EXP SWAP1 DIV PUSH20 0xFFFFFFFFFFFFFFFFFFFFFFFFFFFFFFFFFFFFFFFF AND DUP2 JUMP JUMPDEST PUSH1 0x0 PUSH1 0x3 PUSH1 0x0 DUP4 DUP2 MSTORE PUSH1 0x20 ADD SWAP1 DUP2 MSTORE PUSH1 0x20 ADD PUSH1 0x0 KECCAK256 SWAP1 POP DUP1 PUSH1 0x1 ADD PUSH1 0x0 SWAP1 SLOAD SWAP1 PUSH2 0x100 EXP SWAP1 DIV PUSH20 0xFFFFFFFFFFFFFFFFFFFFFFFFFFFFFFFFFFFFFFFF AND PUSH20 0xFFFFFFFFFFFFFFFFFFFFFFFFFFFFFFFFFFFFFFFF AND CALLER PUSH20 0xFFFFFFFFFFFFFFFFFFFFFFFFFFFFFFFFFFFFFFFF AND EQ PUSH2 0x32B JUMPI PUSH1 0x40 MLOAD PUSH32 0x8C379A000000000000000000000000000000000000000000000000000000000 DUP2 MSTORE PUSH1 0x4 ADD PUSH2 0x322 SWAP1 PUSH2 0xCB2 JUMP JUMPDEST PUSH1 0x40 MLOAD DUP1 SWAP2 SUB SWAP1 REVERT JUMPDEST DUP1 PUSH1 0x3 ADD PUSH1 0x0 SWAP1 SLOAD SWAP1 PUSH2 0x100 EXP SWAP1 DIV PUSH1 0xFF AND ISZERO PUSH2 0x37D JUMPI PUSH1 0x40 MLOAD PUSH32 0x8C379A000000000000000000000000000000000000000000000000000000000 DUP2 MSTORE PUSH1 0x4 ADD PUSH2 0x374 SWAP1 PUSH2 0xD1E JUMP JUMPDEST PUSH1 0x40 MLOAD DUP1 SWAP2 SUB SWAP1 REVERT JUMPDEST PUSH1 0x1 DUP2 PUSH1 0x3 ADD PUSH1 0x0 PUSH2 0x100 EXP DUP2 SLOAD DUP2 PUSH1 0xFF MUL NOT AND SWAP1 DUP4 ISZERO ISZERO MUL OR SWAP1 SSTORE POP PUSH32 0xC1FA7142CFB933D0855114A3BFFDE296944C30B727F297C14D0DB4D553D3A5C7 DUP3 PUSH1 0x40 MLOAD PUSH2 0x3C9 SWAP2 SWAP1 PUSH2 0xA6C JUMP JUMPDEST PUSH1 0x40 MLOAD DUP1 SWAP2 SUB SWAP1 LOG1 POP POP JUMP JUMPDEST PUSH1 0x2 SLOAD DUP2 JUMP JUMPDEST PUSH1 0x1 PUSH1 0x0 SWAP1 SLOAD SWAP1 PUSH2 0x100 EXP SWAP1 DIV PUSH20 0xFFFFFFFFFFFFFFFFFFFFFFFFFFFFFFFFFFFFFFFF AND PUSH20 0xFFFFFFFFFFFFFFFFFFFFFFFFFFFFFFFFFFFFFFFF AND CALLER PUSH20 0xFFFFFFFFFFFFFFFFFFFFFFFFFFFFFFFFFFFFFFFF AND EQ PUSH2 0x46B JUMPI PUSH1 0x40 MLOAD PUSH32 0x8C379A000000000000000000000000000000000000000000000000000000000 DUP2 MSTORE PUSH1 0x4 ADD PUSH2 0x462 SWAP1 PUSH2 0xD8A JUMP JUMPDEST PUSH1 0x40 MLOAD DUP1 SWAP2 SUB SWAP1 REVERT JUMPDEST PUSH1 0x40 MLOAD DUP1 PUSH1 0xA0 ADD PUSH1 0x40 MSTORE DUP1 DUP6 DUP6 DUP1 DUP1 PUSH1 0x1F ADD PUSH1 0x20 DUP1 SWAP2 DIV MUL PUSH1 0x20 ADD PUSH1 0x40 MLOAD SWAP1 DUP2 ADD PUSH1 0x40 MSTORE DUP1 SWAP4 SWAP3 SWAP2 SWAP1 DUP2 DUP2 MSTORE PUSH1 0x20 ADD DUP4 DUP4 DUP1 DUP3 DUP5 CALLDATACOPY PUSH1 0x0 DUP2 DUP5 ADD MSTORE PUSH1 0x1F NOT PUSH1 0x1F DUP3 ADD AND SWAP1 POP DUP1 DUP4 ADD SWAP3 POP POP POP POP POP POP POP DUP2 MSTORE PUSH1 0x20 ADD DUP4 PUSH20 0xFFFFFFFFFFFFFFFFFFFFFFFFFFFFFFFFFFFFFFFF AND DUP2 MSTORE PUSH1 0x20 ADD DUP3 DUP2 MSTORE PUSH1 0x20 ADD PUSH1 0x0 ISZERO ISZERO DUP2 MSTORE PUSH1 0x20 ADD PUSH1 0x0 ISZERO ISZERO DUP2 MSTORE POP PUSH1 0x3 PUSH1 0x0 PUSH1 0x2 SLOAD DUP2 MSTORE PUSH1 0x20 ADD SWAP1 DUP2 MSTORE PUSH1 0x20 ADD PUSH1 0x0 KECCAK256 PUSH1 0x0 DUP3 ADD MLOAD DUP2 PUSH1 0x0 ADD SWAP1 DUP2 PUSH2 0x51C SWAP2 SWAP1 PUSH2 0xF7B JUMP JUMPDEST POP PUSH1 0x20 DUP3 ADD MLOAD DUP2 PUSH1 0x1 ADD PUSH1 0x0 PUSH2 0x100 EXP DUP2 SLOAD DUP2 PUSH20 0xFFFFFFFFFFFFFFFFFFFFFFFFFFFFFFFFFFFFFFFF MUL NOT AND SWAP1 DUP4 PUSH20 0xFFFFFFFFFFFFFFFFFFFFFFFFFFFFFFFFFFFFFFFF AND MUL OR SWAP1 SSTORE POP PUSH1 0x40 DUP3 ADD MLOAD DUP2 PUSH1 0x2 ADD SSTORE PUSH1 0x60 DUP3 ADD MLOAD DUP2 PUSH1 0x3 ADD PUSH1 0x0 PUSH2 0x100 EXP DUP2 SLOAD DUP2 PUSH1 0xFF MUL NOT AND SWAP1 DUP4 ISZERO ISZERO MUL OR SWAP1 SSTORE POP PUSH1 0x80 DUP3 ADD MLOAD DUP2 PUSH1 0x3 ADD PUSH1 0x1 PUSH2 0x100 EXP DUP2 SLOAD DUP2 PUSH1 0xFF MUL NOT AND SWAP1 DUP4 ISZERO ISZERO MUL OR SWAP1 SSTORE POP SWAP1 POP POP PUSH1 0x2 PUSH1 0x0 DUP2 SLOAD DUP1 SWAP3 SWAP2 SWAP1 PUSH2 0x5C4 SWAP1 PUSH2 0x107C JUMP JUMPDEST SWAP2 SWAP1 POP SSTORE POP PUSH32 0x6CF53AA7292E664152C2EA948C3B3C95D4B05C36DAEB2626D0293473C4A4A153 PUSH1 0x2 SLOAD DUP4 DUP4 PUSH1 0x40 MLOAD PUSH2 0x5FE SWAP4 SWAP3 SWAP2 SWAP1 PUSH2 0x10C4 JUMP JUMPDEST PUSH1 0x40 MLOAD DUP1 SWAP2 SUB SWAP1 LOG1 POP POP POP POP JUMP JUMPDEST PUSH1 0x1 PUSH1 0x0 SWAP1 SLOAD SWAP1 PUSH2 0x100 EXP SWAP1 DIV PUSH20 0xFFFFFFFFFFFFFFFFFFFFFFFFFFFFFFFFFFFFFFFF AND PUSH20 0xFFFFFFFFFFFFFFFFFFFFFFFFFFFFFFFFFFFFFFFF AND CALLER PUSH20 0xFFFFFFFFFFFFFFFFFFFFFFFFFFFFFFFFFFFFFFFF AND EQ PUSH2 0x69C JUMPI PUSH1 0x40 MLOAD PUSH32 0x8C379A000000000000000000000000000000000000000000000000000000000 DUP2 MSTORE PUSH1 0x4 ADD PUSH2 0x693 SWAP1 PUSH2 0xD8A JUMP JUMPDEST PUSH1 0x40 MLOAD DUP1 SWAP2 SUB SWAP1 REVERT JUMPDEST PUSH1 0x0 PUSH1 0x3 PUSH1 0x0 DUP4 DUP2 MSTORE PUSH1 0x20 ADD SWAP1 DUP2 MSTORE PUSH1 0x20 ADD PUSH1 0x0 KECCAK256 SWAP1 POP DUP1 PUSH1 0x3 ADD PUSH1 0x0 SWAP1 SLOAD SWAP1 PUSH2 0x100 EXP SWAP1 DIV PUSH1 0xFF AND PUSH2 0x704 JUMPI PUSH1 0x40 MLOAD PUSH32 0x8C379A000000000000000000000000000000000000000000000000000000000 DUP2 MSTORE PUSH1 0x4 ADD PUSH2 0x6FB SWAP1 PUSH2 0x1147 JUMP JUMPDEST PUSH1 0x40 MLOAD DUP1 SWAP2 SUB SWAP1 REVERT JUMPDEST DUP1 PUSH1 0x3 ADD PUSH1 0x1 SWAP1 SLOAD SWAP1 PUSH2 0x100 EXP SWAP1 DIV PUSH1 0xFF AND ISZERO PUSH2 0x756 JUMPI PUSH1 0x40 MLOAD PUSH32 0x8C379A000000000000000000000000000000000000000000000000000000000 DUP2 MSTORE PUSH1 0x4 ADD PUSH2 0x74D SWAP1 PUSH2 0x11B3 JUMP JUMPDEST PUSH1 0x40 MLOAD DUP1 SWAP2 SUB SWAP1 REVERT JUMPDEST PUSH1 0x1 DUP2 PUSH1 0x3 ADD PUSH1 0x1 PUSH2 0x100 EXP DUP2 SLOAD DUP2 PUSH1 0xFF MUL NOT AND SWAP1 DUP4 ISZERO ISZERO MUL OR SWAP1 SSTORE POP PUSH1 0x0 DUP1 SLOAD SWAP1 PUSH2 0x100 EXP SWAP1 DIV PUSH20 0xFFFFFFFFFFFFFFFFFFFFFFFFFFFFFFFFFFFFFFFF AND PUSH20 0xFFFFFFFFFFFFFFFFFFFFFFFFFFFFFFFFFFFFFFFF AND PUSH4 0x40C10F19 DUP3 PUSH1 0x1 ADD PUSH1 0x0 SWAP1 SLOAD SWAP1 PUSH2 0x100 EXP SWAP1 DIV PUSH20 0xFFFFFFFFFFFFFFFFFFFFFFFFFFFFFFFFFFFFFFFF AND DUP4 PUSH1 0x2 ADD SLOAD PUSH1 0x40 MLOAD DUP4 PUSH4 0xFFFFFFFF AND PUSH1 0xE0 SHL DUP2 MSTORE PUSH1 0x4 ADD PUSH2 0x7F6 SWAP3 SWAP2 SWAP1 PUSH2 0x11D3 JUMP JUMPDEST PUSH1 0x0 PUSH1 0x40 MLOAD DUP1 DUP4 SUB DUP2 PUSH1 0x0 DUP8 DUP1 EXTCODESIZE ISZERO DUP1 ISZERO PUSH2 0x810 JUMPI PUSH1 0x0 DUP1 REVERT JUMPDEST POP GAS CALL ISZERO DUP1 ISZERO PUSH2 0x824 JUMPI RETURNDATASIZE PUSH1 0x0 DUP1 RETURNDATACOPY RETURNDATASIZE PUSH1 0x0 REVERT JUMPDEST POP POP POP POP PUSH32 0x94C3A14CB6CD221EAFA3796FAAD63A0CD14BB9A4E2607CA79D8D0AEA5FDF0511 DUP3 CALLER DUP4 PUSH1 0x2 ADD SLOAD PUSH1 0x40 MLOAD PUSH2 0x85F SWAP4 SWAP3 SWAP2 SWAP1 PUSH2 0x10C4 JUMP JUMPDEST PUSH1 0x40 MLOAD DUP1 SWAP2 SUB SWAP1 LOG1 POP POP JUMP JUMPDEST PUSH1 0x0 DUP1 SLOAD SWAP1 PUSH2 0x100 EXP SWAP1 DIV PUSH20 0xFFFFFFFFFFFFFFFFFFFFFFFFFFFFFFFFFFFFFFFF AND DUP2 JUMP JUMPDEST PUSH1 0x0 DUP1 REVERT JUMPDEST PUSH1 0x0 DUP1 REVERT JUMPDEST PUSH1 0x0 DUP2 SWAP1 POP SWAP2 SWAP1 POP JUMP JUMPDEST PUSH2 0x8AC DUP2 PUSH2 0x899 JUMP JUMPDEST DUP2 EQ PUSH2 0x8B7 JUMPI PUSH1 0x0 DUP1 REVERT JUMPDEST POP JUMP JUMPDEST PUSH1 0x0 DUP2 CALLDATALOAD SWAP1 POP PUSH2 0x8C9 DUP2 PUSH2 0x8A3 JUMP JUMPDEST SWAP3 SWAP2 POP POP JUMP JUMPDEST PUSH1 0x0 PUSH1 0x20 DUP3 DUP5 SUB SLT ISZERO PUSH2 0x8E5 JUMPI PUSH2 0x8E4 PUSH2 0x88F JUMP JUMPDEST JUMPDEST PUSH1 0x0 PUSH2 0x8F3 DUP5 DUP3 DUP6 ADD PUSH2 0x8BA JUMP JUMPDEST SWAP2 POP POP SWAP3 SWAP2 POP POP JUMP JUMPDEST PUSH1 0x0 DUP2 MLOAD SWAP1 POP SWAP2 SWAP1 POP JUMP JUMPDEST PUSH1 0x0 DUP3 DUP3 MSTORE PUSH1 0x20 DUP3 ADD SWAP1 POP SWAP3 SWAP2 POP POP JUMP JUMPDEST PUSH1 0x0 JUMPDEST DUP4 DUP2 LT ISZERO PUSH2 0x936 JUMPI DUP1 DUP3 ADD MLOAD DUP2 DUP5 ADD MSTORE PUSH1 0x20 DUP2 ADD SWAP1 POP PUSH2 0x91B JUMP JUMPDEST PUSH1 0x0 DUP5 DUP5 ADD MSTORE POP POP POP POP JUMP JUMPDEST PUSH1 0x0 PUSH1 0x1F NOT PUSH1 0x1F DUP4 ADD AND SWAP1 POP SWAP2 SWAP1 POP JUMP JUMPDEST PUSH1 0x0 PUSH2 0x95E DUP3 PUSH2 0x8FC JUMP JUMPDEST PUSH2 0x968 DUP2 DUP6 PUSH2 0x907 JUMP JUMPDEST SWAP4 POP PUSH2 0x978 DUP2 DUP6 PUSH1 0x20 DUP7 ADD PUSH2 0x918 JUMP JUMPDEST PUSH2 0x981 DUP2 PUSH2 0x942 JUMP JUMPDEST DUP5 ADD SWAP2 POP POP SWAP3 SWAP2 POP POP JUMP JUMPDEST PUSH1 0x0 PUSH20 0xFFFFFFFFFFFFFFFFFFFFFFFFFFFFFFFFFFFFFFFF DUP3 AND SWAP1 POP SWAP2 SWAP1 POP JUMP JUMPDEST PUSH1 0x0 PUSH2 0x9B7 DUP3 PUSH2 0x98C JUMP JUMPDEST SWAP1 POP SWAP2 SWAP1 POP JUMP JUMPDEST PUSH2 0x9C7 DUP2 PUSH2 0x9AC JUMP JUMPDEST DUP3 MSTORE POP POP JUMP JUMPDEST PUSH2 0x9D6 DUP2 PUSH2 0x899 JUMP JUMPDEST DUP3 MSTORE POP POP JUMP JUMPDEST PUSH1 0x0 DUP2 ISZERO ISZERO SWAP1 POP SWAP2 SWAP1 POP JUMP JUMPDEST PUSH2 0x9F1 DUP2 PUSH2 0x9DC JUMP JUMPDEST DUP3 MSTORE POP POP JUMP JUMPDEST PUSH1 0x0 PUSH1 0xA0 DUP3 ADD SWAP1 POP DUP2 DUP2 SUB PUSH1 0x0 DUP4 ADD MSTORE PUSH2 0xA11 DUP2 DUP9 PUSH2 0x953 JUMP JUMPDEST SWAP1 POP PUSH2 0xA20 PUSH1 0x20 DUP4 ADD DUP8 PUSH2 0x9BE JUMP JUMPDEST PUSH2 0xA2D PUSH1 0x40 DUP4 ADD DUP7 PUSH2 0x9CD JUMP JUMPDEST PUSH2 0xA3A PUSH1 0x60 DUP4 ADD DUP6 PUSH2 0x9E8 JUMP JUMPDEST PUSH2 0xA47 PUSH1 0x80 DUP4 ADD DUP5 PUSH2 0x9E8 JUMP JUMPDEST SWAP7 SWAP6 POP POP POP POP POP POP JUMP JUMPDEST PUSH1 0x0 PUSH1 0x20 DUP3 ADD SWAP1 POP PUSH2 0xA66 PUSH1 0x0 DUP4 ADD DUP5 PUSH2 0x9BE JUMP JUMPDEST SWAP3 SWAP2 POP POP JUMP JUMPDEST PUSH1 0x0 PUSH1 0x20 DUP3 ADD SWAP1 POP PUSH2 0xA81 PUSH1 0x0 DUP4 ADD DUP5 PUSH2 0x9CD JUMP JUMPDEST SWAP3 SWAP2 POP POP JUMP JUMPDEST PUSH1 0x0 DUP1 REVERT JUMPDEST PUSH1 0x0 DUP1 REVERT JUMPDEST PUSH1 0x0 DUP1 REVERT JUMPDEST PUSH1 0x0 DUP1 DUP4 PUSH1 0x1F DUP5 ADD SLT PUSH2 0xAAC JUMPI PUSH2 0xAAB PUSH2 0xA87 JUMP JUMPDEST JUMPDEST DUP3 CALLDATALOAD SWAP1 POP PUSH8 0xFFFFFFFFFFFFFFFF DUP2 GT ISZERO PUSH2 0xAC9 JUMPI PUSH2 0xAC8 PUSH2 0xA8C JUMP JUMPDEST JUMPDEST PUSH1 0x20 DUP4 ADD SWAP2 POP DUP4 PUSH1 0x1 DUP3 MUL DUP4 ADD GT ISZERO PUSH2 0xAE5 JUMPI PUSH2 0xAE4 PUSH2 0xA91 JUMP JUMPDEST JUMPDEST SWAP3 POP SWAP3 SWAP1 POP JUMP JUMPDEST PUSH2 0xAF5 DUP2 PUSH2 0x9AC JUMP JUMPDEST DUP2 EQ PUSH2 0xB00 JUMPI PUSH1 0x0 DUP1 REVERT JUMPDEST POP JUMP JUMPDEST PUSH1 0x0 DUP2 CALLDATALOAD SWAP1 POP PUSH2 0xB12 DUP2 PUSH2 0xAEC JUMP JUMPDEST SWAP3 SWAP2 POP POP JUMP JUMPDEST PUSH1 0x0 DUP1 PUSH1 0x0 DUP1 PUSH1 0x60 DUP6 DUP8 SUB SLT ISZERO PUSH2 0xB32 JUMPI PUSH2 0xB31 PUSH2 0x88F JUMP JUMPDEST JUMPDEST PUSH1 0x0 DUP6 ADD CALLDATALOAD PUSH8 0xFFFFFFFFFFFFFFFF DUP2 GT ISZERO PUSH2 0xB50 JUMPI PUSH2 0xB4F PUSH2 0x894 JUMP JUMPDEST JUMPDEST PUSH2 0xB5C DUP8 DUP3 DUP9 ADD PUSH2 0xA96 JUMP JUMPDEST SWAP5 POP SWAP5 POP POP PUSH1 0x20 PUSH2 0xB6F DUP8 DUP3 DUP9 ADD PUSH2 0xB03 JUMP JUMPDEST SWAP3 POP POP PUSH1 0x40 PUSH2 0xB80 DUP8 DUP3 DUP9 ADD PUSH2 0x8BA JUMP JUMPDEST SWAP2 POP POP SWAP3 SWAP6 SWAP2 SWAP5 POP SWAP3 POP JUMP JUMPDEST PUSH1 0x0 DUP2 SWAP1 POP SWAP2 SWAP1 POP JUMP JUMPDEST PUSH1 0x0 PUSH2 0xBB1 PUSH2 0xBAC PUSH2 0xBA7 DUP5 PUSH2 0x98C JUMP JUMPDEST PUSH2 0xB8C JUMP JUMPDEST PUSH2 0x98C JUMP JUMPDEST SWAP1 POP SWAP2 SWAP1 POP JUMP JUMPDEST PUSH1 0x0 PUSH2 0xBC3 DUP3 PUSH2 0xB96 JUMP JUMPDEST SWAP1 POP SWAP2 SWAP1 POP JUMP JUMPDEST PUSH1 0x0 PUSH2 0xBD5 DUP3 PUSH2 0xBB8 JUMP JUMPDEST SWAP1 POP SWAP2 SWAP1 POP JUMP JUMPDEST PUSH2 0xBE5 DUP2 PUSH2 0xBCA JUMP JUMPDEST DUP3 MSTORE POP POP JUMP JUMPDEST PUSH1 0x0 PUSH1 0x20 DUP3 ADD SWAP1 POP PUSH2 0xC00 PUSH1 0x0 DUP4 ADD DUP5 PUSH2 0xBDC JUMP JUMPDEST SWAP3 SWAP2 POP POP JUMP JUMPDEST PUSH32 0x4E487B7100000000000000000000000000000000000000000000000000000000 PUSH1 0x0 MSTORE PUSH1 0x22 PUSH1 0x4 MSTORE PUSH1 0x24 PUSH1 0x0 REVERT JUMPDEST PUSH1 0x0 PUSH1 0x2 DUP3 DIV SWAP1 POP PUSH1 0x1 DUP3 AND DUP1 PUSH2 0xC4D JUMPI PUSH1 0x7F DUP3 AND SWAP2 POP JUMPDEST PUSH1 0x20 DUP3 LT DUP2 SUB PUSH2 0xC60 JUMPI PUSH2 0xC5F PUSH2 0xC06 JUMP JUMPDEST JUMPDEST POP SWAP2 SWAP1 POP JUMP JUMPDEST PUSH32 0x4E6F742061737369676E656420746F0000000000000000000000000000000000 PUSH1 0x0 DUP3 ADD MSTORE POP JUMP JUMPDEST PUSH1 0x0 PUSH2 0xC9C PUSH1 0xF DUP4 PUSH2 0x907 JUMP JUMPDEST SWAP2 POP PUSH2 0xCA7 DUP3 PUSH2 0xC66 JUMP JUMPDEST PUSH1 0x20 DUP3 ADD SWAP1 POP SWAP2 SWAP1 POP JUMP JUMPDEST PUSH1 0x0 PUSH1 0x20 DUP3 ADD SWAP1 POP DUP2 DUP2 SUB PUSH1 0x0 DUP4 ADD MSTORE PUSH2 0xCCB DUP2 PUSH2 0xC8F JUMP JUMPDEST SWAP1 POP SWAP2 SWAP1 POP JUMP JUMPDEST PUSH32 0x5461736B20636F6D706C6574656420616C726561647900000000000000000000 PUSH1 0x0 DUP3 ADD MSTORE POP JUMP JUMPDEST PUSH1 0x0 PUSH2 0xD08 PUSH1 0x16 DUP4 PUSH2 0x907 JUMP JUMPDEST SWAP2 POP PUSH2 0xD13 DUP3 PUSH2 0xCD2 JUMP JUMPDEST PUSH1 0x20 DUP3 ADD SWAP1 POP SWAP2 SWAP1 POP JUMP JUMPDEST PUSH1 0x0 PUSH1 0x20 DUP3 ADD SWAP1 POP DUP2 DUP2 SUB PUSH1 0x0 DUP4 ADD MSTORE PUSH2 0xD37 DUP2 PUSH2 0xCFB JUMP JUMPDEST SWAP1 POP SWAP2 SWAP1 POP JUMP JUMPDEST PUSH32 0x4E6F74206F776E65720000000000000000000000000000000000000000000000 PUSH1 0x0 DUP3 ADD MSTORE POP JUMP JUMPDEST PUSH1 0x0 PUSH2 0xD74 PUSH1 0x9 DUP4 PUSH2 0x907 JUMP JUMPDEST SWAP2 POP PUSH2 0xD7F DUP3 PUSH2 0xD3E JUMP JUMPDEST PUSH1 0x20 DUP3 ADD SWAP1 POP SWAP2 SWAP1 POP JUMP JUMPDEST PUSH1 0x0 PUSH1 0x20 DUP3 ADD SWAP1 POP DUP2 DUP2 SUB PUSH1 0x0 DUP4 ADD MSTORE PUSH2 0xDA3 DUP2 PUSH2 0xD67 JUMP JUMPDEST SWAP1 POP SWAP2 SWAP1 POP JUMP JUMPDEST PUSH32 0x4E487B7100000000000000000000000000000000000000000000000000000000 PUSH1 0x0 MSTORE PUSH1 0x41 PUSH1 0x4 MSTORE PUSH1 0x24 PUSH1 0x0 REVERT JUMPDEST PUSH1 0x0 DUP2 SWAP1 POP DUP2 PUSH1 0x0 MSTORE PUSH1 0x20 PUSH1 0x0 KECCAK256 SWAP1 POP SWAP2 SWAP1 POP JUMP JUMPDEST PUSH1 0x0 PUSH1 0x20 PUSH1 0x1F DUP4 ADD DIV SWAP1 POP SWAP2 SWAP1 POP JUMP JUMPDEST PUSH1 0x0 DUP3 DUP3 SHL SWAP1 POP SWAP3 SWAP2 POP POP JUMP JUMPDEST PUSH1 0x0 PUSH1 0x8 DUP4 MUL PUSH2 0xE3B PUSH32 0xFFFFFFFFFFFFFFFFFFFFFFFFFFFFFFFFFFFFFFFFFFFFFFFFFFFFFFFFFFFFFFFF DUP3 PUSH2 0xDFE JUMP JUMPDEST PUSH2 0xE45 DUP7 DUP4 PUSH2 0xDFE JUMP JUMPDEST SWAP6 POP DUP1 NOT DUP5 AND SWAP4 POP DUP1 DUP7 AND DUP5 OR SWAP3 POP POP POP SWAP4 SWAP3 POP POP POP JUMP JUMPDEST PUSH1 0x0 PUSH2 0xE78 PUSH2 0xE73 PUSH2 0xE6E DUP5 PUSH2 0x899 JUMP JUMPDEST PUSH2 0xB8C JUMP JUMPDEST PUSH2 0x899 JUMP JUMPDEST SWAP1 POP SWAP2 SWAP1 POP JUMP JUMPDEST PUSH1 0x0 DUP2 SWAP1 POP SWAP2 SWAP1 POP JUMP JUMPDEST PUSH2 0xE92 DUP4 PUSH2 0xE5D JUMP JUMPDEST PUSH2 0xEA6 PUSH2 0xE9E DUP3 PUSH2 0xE7F JUMP JUMPDEST DUP5 DUP5 SLOAD PUSH2 0xE0B JUMP JUMPDEST DUP3 SSTORE POP POP POP POP JUMP JUMPDEST PUSH1 0x0 SWAP1 JUMP JUMPDEST PUSH2 0xEBB PUSH2 0xEAE JUMP JUMPDEST PUSH2 0xEC6 DUP2 DUP5 DUP5 PUSH2 0xE89 JUMP JUMPDEST POP POP POP JUMP JUMPDEST JUMPDEST DUP2 DUP2 LT ISZERO PUSH2 0xEEA JUMPI PUSH2 0xEDF PUSH1 0x0 DUP3 PUSH2 0xEB3 JUMP JUMPDEST PUSH1 0x1 DUP2 ADD SWAP1 POP PUSH2 0xECC JUMP JUMPDEST POP POP JUMP JUMPDEST PUSH1 0x1F DUP3 GT ISZERO PUSH2 0xF2F JUMPI PUSH2 0xF00 DUP2 PUSH2 0xDD9 JUMP JUMPDEST PUSH2 0xF09 DUP5 PUSH2 0xDEE JUMP JUMPDEST DUP2 ADD PUSH1 0x20 DUP6 LT ISZERO PUSH2 0xF18 JUMPI DUP2 SWAP1 POP JUMPDEST PUSH2 0xF2C PUSH2 0xF24 DUP6 PUSH2 0xDEE JUMP JUMPDEST DUP4 ADD DUP3 PUSH2 0xECB JUMP JUMPDEST POP POP JUMPDEST POP POP POP JUMP JUMPDEST PUSH1 0x0 DUP3 DUP3 SHR SWAP1 POP SWAP3 SWAP2 POP POP JUMP JUMPDEST PUSH1 0x0 PUSH2 0xF52 PUSH1 0x0 NOT DUP5 PUSH1 0x8 MUL PUSH2 0xF34 JUMP JUMPDEST NOT DUP1 DUP4 AND SWAP2 POP POP SWAP3 SWAP2 POP POP JUMP JUMPDEST PUSH1 0x0 PUSH2 0xF6B DUP4 DUP4 PUSH2 0xF41 JUMP JUMPDEST SWAP2 POP DUP3 PUSH1 0x2 MUL DUP3 OR SWAP1 POP SWAP3 SWAP2 POP POP JUMP JUMPDEST PUSH2 0xF84 DUP3 PUSH2 0x8FC JUMP JUMPDEST PUSH8 0xFFFFFFFFFFFFFFFF DUP2 GT ISZERO PUSH2 0xF9D JUMPI PUSH2 0xF9C PUSH2 0xDAA JUMP JUMPDEST JUMPDEST PUSH2 0xFA7 DUP3 SLOAD PUSH2 0xC35 JUMP JUMPDEST PUSH2 0xFB2 DUP3 DUP3 DUP6 PUSH2 0xEEE JUMP JUMPDEST PUSH1 0x0 PUSH1 0x20 SWAP1 POP PUSH1 0x1F DUP4 GT PUSH1 0x1 DUP2 EQ PUSH2 0xFE5 JUMPI PUSH1 0x0 DUP5 ISZERO PUSH2 0xFD3 JUMPI DUP3 DUP8 ADD MLOAD SWAP1 POP JUMPDEST PUSH2 0xFDD DUP6 DUP3 PUSH2 0xF5F JUMP JUMPDEST DUP7 SSTORE POP PUSH2 0x1045 JUMP JUMPDEST PUSH1 0x1F NOT DUP5 AND PUSH2 0xFF3 DUP7 PUSH2 0xDD9 JUMP JUMPDEST PUSH1 0x0 JUMPDEST DUP3 DUP2 LT ISZERO PUSH2 0x101B JUMPI DUP5 DUP10 ADD MLOAD DUP3 SSTORE PUSH1 0x1 DUP3 ADD SWAP2 POP PUSH1 0x20 DUP6 ADD SWAP5 POP PUSH1 0x20 DUP2 ADD SWAP1 POP PUSH2 0xFF6 JUMP JUMPDEST DUP7 DUP4 LT ISZERO PUSH2 0x1038 JUMPI DUP5 DUP10 ADD MLOAD PUSH2 0x1034 PUSH1 0x1F DUP10 AND DUP3 PUSH2 0xF41 JUMP JUMPDEST DUP4 SSTORE POP JUMPDEST PUSH1 0x1 PUSH1 0x2 DUP9 MUL ADD DUP9 SSTORE POP POP POP JUMPDEST POP POP POP POP POP POP JUMP JUMPDEST PUSH32 0x4E487B7100000000000000000000000000000000000000000000000000000000 PUSH1 0x0 MSTORE PUSH1 0x11 PUSH1 0x4 MSTORE PUSH1 0x24 PUSH1 0x0 REVERT JUMPDEST PUSH1 0x0 PUSH2 0x1087 DUP3 PUSH2 0x899 JUMP JUMPDEST SWAP2 POP PUSH32 0xFFFFFFFFFFFFFFFFFFFFFFFFFFFFFFFFFFFFFFFFFFFFFFFFFFFFFFFFFFFFFFFF DUP3 SUB PUSH2 0x10B9 JUMPI PUSH2 0x10B8 PUSH2 0x104D JUMP JUMPDEST JUMPDEST PUSH1 0x1 DUP3 ADD SWAP1 POP SWAP2 SWAP1 POP JUMP JUMPDEST PUSH1 0x0 PUSH1 0x60 DUP3 ADD SWAP1 POP PUSH2 0x10D9 PUSH1 0x0 DUP4 ADD DUP7 PUSH2 0x9CD JUMP JUMPDEST PUSH2 0x10E6 PUSH1 0x20 DUP4 ADD DUP6 PUSH2 0x9BE JUMP JUMPDEST PUSH2 0x10F3 PUSH1 0x40 DUP4 ADD DUP5 PUSH2 0x9CD JUMP JUMPDEST SWAP5 SWAP4 POP POP POP POP JUMP JUMPDEST PUSH32 0x5461736B206E6F742079657420636F6D706C6574656400000000000000000000 PUSH1 0x0 DUP3 ADD MSTORE POP JUMP JUMPDEST PUSH1 0x0 PUSH2 0x1131 PUSH1 0x16 DUP4 PUSH2 0x907 JUMP JUMPDEST SWAP2 POP PUSH2 0x113C DUP3 PUSH2 0x10FB JUMP JUMPDEST PUSH1 0x20 DUP3 ADD SWAP1 POP SWAP2 SWAP1 POP JUMP JUMPDEST PUSH1 0x0 PUSH1 0x20 DUP3 ADD SWAP1 POP DUP2 DUP2 SUB PUSH1 0x0 DUP4 ADD MSTORE PUSH2 0x1160 DUP2 PUSH2 0x1124 JUMP JUMPDEST SWAP1 POP SWAP2 SWAP1 POP JUMP JUMPDEST PUSH32 0x416C726561647920706169640000000000000000000000000000000000000000 PUSH1 0x0 DUP3 ADD MSTORE POP JUMP JUMPDEST PUSH1 0x0 PUSH2 0x119D PUSH1 0xC DUP4 PUSH2 0x907 JUMP JUMPDEST SWAP2 POP PUSH2 0x11A8 DUP3 PUSH2 0x1167 JUMP JUMPDEST PUSH1 0x20 DUP3 ADD SWAP1 POP SWAP2 SWAP1 POP JUMP JUMPDEST PUSH1 0x0 PUSH1 0x20 DUP3 ADD SWAP1 POP DUP2 DUP2 SUB PUSH1 0x0 DUP4 ADD MSTORE PUSH2 0x11CC DUP2 PUSH2 0x1190 JUMP JUMPDEST SWAP1 POP SWAP2 SWAP1 POP JUMP JUMPDEST PUSH1 0x0 PUSH1 0x40 DUP3 ADD SWAP1 POP PUSH2 0x11E8 PUSH1 0x0 DUP4 ADD DUP6 PUSH2 0x9BE JUMP JUMPDEST PUSH2 0x11F5 PUSH1 0x20 DUP4 ADD DUP5 PUSH2 0x9CD JUMP JUMPDEST SWAP4 SWAP3 POP POP POP JUMP INVALID LOG2 PUSH5 0x6970667358 0x22 SLT KECCAK256 PC DUP12 0xC6 GT DUP13 PUSH21 0x8C0EECED2D97819993BAA695E8D362BFB216EC0EAC 0xE0 PUSH5 0xC64E086473 PUSH16 0x6C634300081C00330000000000000000 "
        },
        "methodIdentifiers": {
          "createTask(string,address,uint256)": "ccd50119",
          "markTaskAsCompleted(uint256)": "b10bcefa",
          "owner()": "8da5cb5b",
          "rewardTask(uint256)": "d42a80f5",
          "taskCount()": "b6cb58a5",
          "tasks(uint256)": "8d977672",
          "token()": "fc0c546a"
        }
      }
    }
  }
}